:020000040800F2
:10000000880100209F020008410200084302000806
:1000100045020008470200084902000800000000ED
:100020000000000000000000000000004B0200087B
:100030004D020008000000004F02000851020008B5
:100040005302000855020008570200085902000830
:100050005B0200085D0200085F0200086102000800
:1000600063020008650200086702000869020008D0
:100070006B0200086D0200086F02000871020008A0
:100080007302000875020008770200087902000870
:100090007B0200087D0200087F0200088102000840
:1000A0008302000885020008870200088902000810
:1000B0008B0200088D020008000000008F0200087B
:1000C00091020008000000000000000093020008F8
:1000D00000000000950200089702000800000000E0
:0C00E000990200089B0200089D02000825
:1000EC00344935480A1A02D0072291438D463349C8
:1000FC0033480A1A06D00722914381F30988022259
:10010C0082F314882F483049304A00F042F83048C6
:10011C003049314A00F03DF830483149314A00F05D
:10012C0038F831483149324A00F033F83148324915
:10013C00324A00F02EF832483249334A00F029F89E
:10014C0032483349334A00F024F83348334900220B
:10015C0000F02AF832483349002200F025F83248E2
:10016C003249091A082902DB0022026041601F484B
:10017C001F49884205D00268043003B4904703BC81
:10018C00F7E700208646EC4600200021284A9047DD
:10019C00FEE7884207D0521A05D0037801300B7065
:1001AC000131013AF9D17047884202D00270013016
:1001BC00FAE77047880100208800002088010020A1
:1001CC0088010020B4080008000000200000002076
:1001DC00B0020008B00200088C080008B40800083F
:1001EC0000000020000000208C0800088C0800088B
:1001FC008C0800088C0800088C0800088C08000883
:10020C008C0800088C080008B1080008B408000825
:10021C000400002004000020000000200400002046
:10022C0004000020040000200800002088000020AA
:10023C00B1020008FEE7FEE7FEE7FEE7FEE7FEE799
:10024C00FEE7FEE7FEE7FEE7FEE7FEE7FEE7FEE77A
:10025C00FEE7FEE7FEE7FEE7FEE7FEE7FEE7FEE76A
:10026C00FEE7FEE7FEE7FEE7FEE7FEE7FEE7FEE75A
:10027C00FEE7FEE7FEE7FEE7FEE7FEE7FEE7FEE74A
:10028C00FEE7FEE7FEE7FEE7FEE7FEE7FEE7FEE73A
:10029C00FEE7024802490160FFF722BF08ED00E0CB
:0402AC000000000846
:1002B00008B500F09DF800F023F9134A0121012050
:1002C00000F082F9114A0221052000F07DF9104B5F
:1002D0001B681A4601210D2000F06AFA0C4B1B68BE
:1002E00001330B4A13600A4B1B68B3F5FA7FEED15A
:1002F000084A0121012000F067F9064A0221012085
:1003000000F062F9E3E700BF8C08000898080008D5
:1003100000000020A008000882B001900B468DF874
:10032000033013468DF802309DF803309B008DF8A2
:1003300003309DF803301F2B16D8019B1A689DF8D7
:1003400003300F2101FA03F3DB431A40019B1A60CB
:10035000019B1B689DF802109DF8032001FA02F230
:100360001A43019B1A601AE09DF80330203B8DF878
:100370000330019B5A689DF803300F2101FA03F303
:10038000DB431A40019B5A60019B5B689DF8021099
:100390009DF8032001FA02F21A43019B5A6000BF44
:1003A00002B0704782B001900B468DF803301346BF
:1003B0008DF802309DF80230002B0AD0019BDB68DB
:1003C0009DF80320012101FA02F21A43019BDA6031
:1003D0000AE0019BDA689DF80330012101FA03F37A
:1003E000DB431A40019BDA6000BF02B07047000097
:1003F00008B5144B9B69134A43F004039361114BF6
:100400009B69104A43F0080393610E4B9B690D4AA8
:1004100043F0100393610B4B9B690A4A43F020039E
:100420009361022200210848FFF776FF082200218D
:100430000648FFF771FF012200210448FFF7B2FFD1
:1004400000BF08BD00100240000C01400008014040
:1004500000B583B003468DF80730002200212748FD
:10046000FFF7A0FF002201212448FFF79BFF002295
:1004700002212248FFF796FF002203211F48FFF7C1
:1004800091FF9DF8073003F00103002B04D00122F7
:1004900000211A48FFF786FF9DF8073003F002039A
:1004A000002B04D0012201211448FFF77BFF9DF8A7
:1004B000073003F00403002B04D0012202210F486F
:1004C000FFF770FF9DF8073003F00803002B04D0FE
:1004D000012203210948FFF765FF01220521074892
:1004E000FFF760FF00F062F8002205210348FFF7E4
:1004F00059FF00BF03B05DF804FB00BF000C0140D2
:1005000008B5022200212848FFF706FF0222012138
:100510002548FFF701FF022202212348FFF7FCFED6
:10052000022203212048FFF7F7FE022204211E4881
:10053000FFF7F2FE022205211B48FFF7EDFE002225
:1005400005211948FFF72EFF002204211648FFF766
:1005500029FF0320FFF77CFF00F028F80320FFF7B6
:1005600077FF00F023F80320FFF772FF00F01EF87A
:100570000220FFF76DFF00F019F8282000F066F95F
:1005800000F014F8082000F061F900F00FF80C20DA
:1005900000F05CF900F00AF8012000F057F900F0D3
:1005A00005F800BF08BD00BF000C014082B0002369
:1005B000019302E0019B01330193019BC72BF9D901
:1005C00000BF00BF02B0704700B585B0034600927F
:1005D0008DF807300B468DF806309DF80730013B4B
:1005E0008DF80F309DF80630012B0DD19DF80F309E
:1005F000803B8DF80F309DF80F30184600F026F93B
:10060000009800F016F810E09DF80630022B0CD18F
:100610009DF80F30403B8DF80F309DF80F30184695
:1006200000F014F9009800F004F800BF05B05DF880
:1006300004FB00B583B0019007E0019B1B781846CE
:1006400000F0E4F8019B01330193019B1B78002B20
:10065000F3D100BF00BF03B05DF804FB00B583B069
:100660000190019B42F20F7293420AD9019B4C4ABE
:10067000A2FB03235B0BDBB23033DBB2184600F086
:10068000C5F8019BB3F57A7F13D3019A444BA3FBC2
:1006900002135B0B42F2107101FB03F3D31A414AC0
:1006A000A2FB03239B09DBB23033DBB2184600F018
:1006B000ADF8019B632B1CD9019A394BA3FB0213A4
:1006C0005B0B42F2107101FB03F3D31A354AA2FB14
:1006D000031292094FF47A7101FB02F29A1A324B1B
:1006E000A3FB02235B09DBB23033DBB2184600F018
:1006F0008DF8019B092B24D9019B294AA2FB0312E7
:10070000520B42F2107101FB02F29A1A254BA3FB25
:1007100002139B094FF47A7101FB03F3D31A224AA7
:10072000A2FB03125209642101FB02F29A1A1F4B29
:10073000A3FB0223DB08DBB23033DBB2184600F048
:1007400065F8019B164AA2FB0312520B42F210718C
:1007500001FB02F29A1A134BA3FB02139B094FF4FD
:100760007A7101FB03F3D31A0F4AA2FB0312520959
:10077000642101FB02F29A1A0C4BA3FB0213D90865
:100780000B469B000B445B00D11ACBB23033DBB27B
:10079000184600F03BF800BF03B05DF804FB00BF53
:1007A0005917B7D1D34D62101F85EB51CDCCCCCCAE
:1007B00000B585B0034600928DF807300B468DF8E2
:1007C00006309DF80730013B8DF80F309DF806305C
:1007D000012B0AD19DF80F30803B8DF80F309DF82A
:1007E0000F30184600F032F809E09DF80F30403B1A
:1007F0008DF80F309DF80F30184600F027F800985C
:10080000FFF72CFF00BF05B05DF804FB00B583B017
:1008100003468DF80730012204210B48FFF7C2FD83
:100820009DF807301B09DBB21846FFF711FE9DF853
:10083000073003F00F03DBB21846FFF709FE00BFD5
:1008400003B05DF804FB00BF000C014000B583B0AD
:1008500003468DF80730002204210B48FFF7A2FD64
:100860009DF807301B09DBB21846FFF7F1FD9DF834
:10087000073003F00F03DBB21846FFF7E9FD00BFB6
:0C08800003B05DF804FB00BF000C014059
:10088C004F4C41205455524D4120210021402324EE
:10089C0025262A0020202020202020202020202057
:0508AC002020202000C7
:040000050800029F4E
:00000001FF
