:020000040800F2
:10000000D80100209F0200084102000843020008B6
:1000100045020008470200084902000800000000ED
:100020000000000000000000000000004B0200087B
:100030004D020008000000004F020008E90400081B
:100040005302000855020008570200085902000830
:100050005B0200085D0200085F0200086102000800
:1000600063020008650200086702000869020008D0
:100070006B0200086D0200086F02000871020008A0
:100080007302000875020008770200087902000870
:100090007B0200087D0200087F0200088102000840
:1000A0008302000885020008870200088902000810
:1000B0008B0200088D020008000000008F0200087B
:1000C00091020008000000000000000093020008F8
:1000D00000000000950200089702000800000000E0
:0C00E000990200089B0200089D02000825
:1000EC00344935480A1A02D0072291438D463349C8
:1000FC0033480A1A06D00722914381F30988022259
:10010C0082F314882F483049304A00F042F83048C6
:10011C003049314A00F03DF830483149314A00F05D
:10012C0038F831483149324A00F033F83148324915
:10013C00324A00F02EF832483249334A00F029F89E
:10014C0032483349334A00F024F83348334900220B
:10015C0000F02AF832483349002200F025F83248E2
:10016C003249091A082902DB0022026041601F484B
:10017C001F49884205D00268043003B4904703BC81
:10018C00F7E700208646EC4600200021284A9047DD
:10019C00FEE7884207D0521A05D0037801300B7065
:1001AC000131013AF9D17047884202D00270013016
:1001BC00FAE77047D8010020D8000020D8010020B1
:1001CC00D801002040290008000000202600002053
:1001DC00B0020008B0020008E2270008402900081D
:1001EC000000002000000020E4270008E42700089D
:1001FC00E4270008E4270008E4270008E4270008A7
:10020C00E4270008E42700084029000868290008B2
:10021C005400002054000020280000205000002032
:10022C00500000205400002058000020D80000206E
:10023C0071040008FEE7FEE7FEE7FEE7FEE7FEE7D7
:10024C00FEE7FEE7FEE7FEE7FEE7FEE7FEE7FEE77A
:10025C00FEE7FEE7FEE7FEE7FEE7FEE7FEE7FEE76A
:10026C00FEE7FEE7FEE7FEE7FEE7FEE7FEE7FEE75A
:10027C00FEE7FEE7FEE7FEE7FEE7FEE7FEE7FEE74A
:10028C00FEE7FEE7FEE7FEE7FEE7FEE7FEE7FEE73A
:10029C00FEE7024802490160FFF722BF08ED00E0CB
:0402AC000000000846
:1002B00082B0034600918DF807309DF90730002B7E
:1002C0000ADB009BDAB20C499DF907301201D2B269
:1002D0000B4483F800230BE0009BDAB207499DF83A
:1002E000073003F00F03043B1201D2B20B441A761D
:1002F00000BF02B0704700BF00E100E000ED00E089
:1003000000B583B00190019B013BB3F1807F01D325
:1003100001230FE0094A019B013B53600F214FF07D
:10032000FF30FFF7C5FF054B00229A60034B072201
:100330001A600023184603B05DF804FB10E000E0EB
:10034000034B1A68034B1B68B2FBF3F31846704764
:10035000280000200000002008B5FFF7F1FF01464B
:10036000054BA3FB01235A0913461B019B1A9B0053
:10037000CA1A1346184608BD8988888808B5FFF749
:10038000DFFF0346074AA2FB03235909054BA3FBE2
:1003900001235A0913461B019B1A9B00CA1A1346D4
:1003A000184608BD8988888808B5FFF7C9FF034645
:1003B0005B09084AA2FB03231946074BA3FB012351
:1003C0001A0913465B001344DB00CA1A1346184689
:1003D00008BD00BF065BB005ABAAAAAA00B585B0F0
:1003E00001900B468DF803309DF803300833DBB2E3
:1003F000DB00DBB2184600F051FA0023039309E05A
:10040000039B019A13441B78184600F027FA039BBC
:1004100001330393039B072BF2DD00BF00BF05B040
:100420005DF804FB30B583B0FFF7BEFF0446FFF76D
:10043000A5FF0546FFF790FF034600932B46224693
:100440000349044800F0E6FA024B184603B030BDF9
:10045000E42700082C00002008B50448FFF750FFEF
:1004600000F0C6F800F04CF900BF08BD80841E0003
:1004700008B5FFF7F1FF0121012000F02FFA01215B
:100480001348FFF7ABFF02211248FFF7A7FF032134
:100490001148FFF7A3FF04211048FFF79FFF012138
:1004A000062000F01BFA0E4B1B88DBB2184600F04A
:1004B000D5F90C4A0121072000F086F9FFF7B2FFB9
:1004C00003461A460221052000F07EF9E7E700BF47
:1004D000040000200C000020140000201C0000205C
:1004E00024000020F4270008094B1B680133084A48
:1004F0001360084B1B88032B04D8064B1B88013361
:100500009BB200E00123034A138000BF704700BF85
:10051000280000202400002082B001900B468DF8B6
:10052000033013468DF802309DF803309B008DF8A0
:1005300003309DF803301F2B16D8019B1A689DF8D5
:1005400003300F2101FA03F3DB431A40019B1A60C9
:10055000019B1B689DF802109DF8032001FA02F22E
:100560001A43019B1A601AE09DF80330203B8DF876
:100570000330019B5A689DF803300F2101FA03F301
:10058000DB431A40019B5A60019B5B689DF8021097
:100590009DF8032001FA02F21A43019B5A6000BF42
:1005A00002B0704782B001900B468DF803301346BD
:1005B0008DF802309DF80230002B0AD0019BDB68D9
:1005C0009DF80320012101FA02F21A43019BDA602F
:1005D0000AE0019BDA689DF80330012101FA03F378
:1005E000DB431A40019BDA6000BF02B07047000095
:1005F00008B5144B9B69134A43F004039361114BF4
:100600009B69104A43F0080393610E4B9B690D4AA6
:1006100043F0100393610B4B9B690A4A43F020039C
:100620009361022200210848FFF776FF082200218B
:100630000648FFF771FF012200210448FFF7B2FFCF
:1006400000BF08BD00100240000C0140000801403E
:1006500000B583B003468DF80730002200212748FB
:10066000FFF7A0FF002201212448FFF79BFF002293
:1006700002212248FFF796FF002203211F48FFF7BF
:1006800091FF9DF8073003F00103002B04D00122F5
:1006900000211A48FFF786FF9DF8073003F0020398
:1006A000002B04D0012201211448FFF77BFF9DF8A5
:1006B000073003F00403002B04D0012202210F486D
:1006C000FFF770FF9DF8073003F00803002B04D0FC
:1006D000012203210948FFF765FF01220521074890
:1006E000FFF760FF00F062F8002205210348FFF7E2
:1006F00059FF00BF03B05DF804FB00BF000C0140D0
:1007000008B5022200212848FFF706FF0222012136
:100710002548FFF701FF022202212348FFF7FCFED4
:10072000022203212048FFF7F7FE022204211E487F
:10073000FFF7F2FE022205211B48FFF7EDFE002223
:1007400005211948FFF72EFF002204211648FFF764
:1007500029FF0320FFF77CFF00F028F80320FFF7B4
:1007600077FF00F023F80320FFF772FF00F01EF878
:100770000220FFF76DFF00F019F8282000F08EF836
:1007800000F014F8082000F089F800F00FF80C20B1
:1007900000F084F800F00AF8012000F07FF800F083
:1007A00005F800BF08BD00BF000C014082B0002367
:1007B000019302E0019B01330193019BC72BF9D9FF
:1007C00000BF00BF02B0704700B585B0034600927D
:1007D0008DF807300B468DF806309DF80730013B49
:1007E0008DF80F309DF80630012B0DD19DF80F309C
:1007F000803B8DF80F309DF80F30184600F04EF812
:10080000009800F016F810E09DF80630022B0CD18D
:100810009DF80F30403B8DF80F309DF80F30184693
:1008200000F03CF8009800F004F800BF05B05DF857
:1008300004FB00B583B0019007E0019B1B781846CC
:1008400000F00CF8019B01330193019B1B78002BF6
:10085000F3D100BF00BF03B05DF804FB00B583B067
:1008600003468DF80730012204210B48FFF79AFE5A
:100870009DF807301B09DBB21846FFF7E9FE9DF82B
:10088000073003F00F03DBB21846FFF7E1FE00BFAD
:1008900003B05DF804FB00BF000C014000B583B05D
:1008A00003468DF80730002204210B48FFF77AFE3B
:1008B0009DF807301B09DBB21846FFF7C9FE9DF80B
:1008C000073003F00F03DBB21846FFF7C1FE00BF8D
:1008D00003B05DF804FB00BF000C014000B585B01B
:1008E00003460A468DF8073013468DF806309DF80A
:1008F0000730013B8DF80F309DF80630012B0AD1EF
:100900009DF80F30803B8DF80F309DF80F30184662
:10091000FFF7C4FF09E09DF80F30403B8DF80F3022
:100920009DF80F301846FFF7B9FF00BF05B05DF81E
:1009300004FB0000004870474800002070B5041E0A
:1009400006DB002C1BDD002600200E490E4D06E0C4
:1009500064420126F8E764100835002C07DD14F026
:10096000010FF8D0D5E9002301F02CFBF3E72EB1FD
:1009700002460B460020034901F0DAFB70BD00205F
:100980000049FBE70000F03F2828000810B50446A6
:100990000846A2684AB12368616803F1010C8C45DE
:1009A00008BF00208B4208D2D054E3682BB12168E5
:1009B0006268914201D2214698472368013323603F
:1009C00010BD70B54C1E09D41646C5B22946304636
:1009D000FFF7DCFF013CB4F1FF3FF7D170BD10F031
:1009E000100F08D108B510F4007F14BF302020206C
:1009F000FFF7E7FF08BD70470028B8BF40427047C7
:100A000000B5FFF797FF024B18445DF804FB00BFE9
:100A1000080000000EB400B586B007AA52F8041B07
:100A200005920390002304936FF00043029301A802
:100A300000F046F806B05DF804EB03B070470378A9
:100A400053B159B10144034613F8012F12B18B423F
:100A5000FAD10B46181A70470346FBE70346F9E73D
:100A600000F1010110F0030F11D010F8012B002A42
:100A700023D010F0030F0AD010F8012B002A1CD04D
:100A800010F0030F03D010F8012B002A15D02DE928
:100A900070004FF001324FF0803350F8044BA4EB5C
:100AA000020525EA04051D4000D1F6E7A0F1040087
:100AB00070BC10F8012B002AFBD1A0EB010070479D
:100AC0002DE9F04F95B082460B92002303600C464F
:100AD00014F8011B002900F0CB872F4600F0BABFA5
:100AE000002507E05E2869D145F4805501E045F016
:100AF00040051C46234613F8010B3028F2D81F2866
:100B000037D9A0F12002102A33D801A151F822F0E0
:100B1000EF0A0008730B0008730B0008550B000860
:100B2000730B0008730B0008730B00085B0B0008C5
:100B3000730B0008730B0008730B0008610B0008AF
:100B4000730B0008670B0008730B0008730B000899
:100B50006D0B000845F08005CBE745F40045C8E77C
:100B600045F02005C5E745F01005C2E745F40075DE
:100B7000BFE72A2822D10B9A111D0B911268002A77
:100B8000BCBF524245F010051878A31C22EAE2725D
:100B900004922E2827D00026742848D07A2846D0E0
:100BA0006A2800F0C5806C2800F0C8804C2800F04E
:100BB000D380682800F0E1809B463BE0A0F1300242
:100BC000D2B2092A88BF0022E0D8002202EB8202BA
:100BD000303800EB420213F8010BA0F13001C9B22A
:100BE0000929F3D9D2E718782A280AD10B9A111DBE
:100BF0000B91166858780233002ECDDB45F48075D2
:100C0000CAE70133A0F13002D2B2092A88BF002618
:100C1000F4D8002606EB8606303800EB460613F8BB
:100C2000010BA0F13002D2B2092AF3D9E4E79B46C6
:100C30001BF8010B782800F29280DFE810F02907FA
:100C40009000900090009000900090009000900024
:100C50009000900090009000900090009000900014
:100C60009000900090009000900090009000900004
:100C700090009000900090009000900090009000F4
:100C80009000900090009000AC00900090009000C8
:100C900090009000900090009000900090009000D4
:100CA00090009000900090009000900090009000C4
:100CB00090009000900090009000900090009000B4
:100CC0009000900090009000FD0118021D0290001D
:100CD0009000900090009000900090009000900094
:100CE00090009000900090009000900090003F01D4
:100CF0009000900090009000900090009000900074
:100D000090009000B2009501FF011A021F029000AE
:100D100095019000900090009000C30081011A019D
:100D200090009000DE0090008D0190009000410145
:100D300045F002059B461BF8010B7BE718786C28F1
:100D400004D003F1010B45F0010573E745F00205FE
:100D500003F1020B58786DE745F001059B46AB4B5C
:100D60001C68002C00F072860BAB01930096049B6C
:100D70002A465146A04700F069BE1878682804D07A
:100D800003F1010B45F0040554E745F0080503F1B4
:100D9000020B58784EE725215046FFF7F7FD00F08B
:100DA00055BE0B9B1A1D0B921C78049B03F1FF3858
:100DB000524641462846FFF712FE21465046FFF7AD
:100DC000E5FD47E015F0080F08D0DAF800200B9B8E
:100DD000191D0B911B681A7000F038BE15F0020F38
:100DE0000B9B03F104020B921B68DAF800201A60D7
:100DF0001CBF00225A6000F029BE0B9B1A1D0B92EB
:100E00001B6802932B468248029A002A18BF10469C
:100E1000029023F4007513F4807F26D03146FFF74B
:100E20000EFE0446049BA3EB0408524641462846A6
:100E3000FFF7D5FD671E6CB1DDE902673346013669
:100E400019785046FFF7A2FD013CF7D1CDE90267C2
:100E50004FF0FF3715F0100F00F0F885524641466D
:100E60002020FFF7AEFD00F0F1BDFFF7F9FD0446CD
:100E7000D8E70B990B1D0B930A68002310461946FF
:100E8000CDE9020115F0800F18BF2323059345F427
:100E900080750826DDE9023419462246234300F016
:100EA000B2850DAF002405F4005CDFF86881DFF83F
:100EB00068E16346AC461D4600F058BD45F4005558
:100EC00015F0800F08D043F2780243F258037828D7
:100ED00018BF1A46059201E00023059315F4807FA0
:100EE00001D025F4007515F4804F64D015F0020F81
:100EF00042D00B9B073323F0070303F108020B9248
:100F0000D3E90034CDE9023415F0040F3FD0DDE918
:100F1000022314B242F3C03122460B46CDE902232C
:100F2000DDE902784246002A3BDA7B421C4668EB48
:100F3000480122460B46CDE902232D23059352E0BA
:100F400015F0800F0CBF00233023059315F4807F2C
:100F5000C9D025F40075C6E715F4807F09D025F4C3
:100F6000007500230593BEE745F4804500230593F3
:100F7000B9E700230593B6E70B9B1A1D0B921B687C
:100F80001C46D91722460B46CDE90223BCE715F0D3
:100F9000080FC5D09DF80840002122460B46CDE938
:100FA000022315F0200F44D115F0400F059B18BF08
:100FB0002023059317E015F0020F1CD00B9B07337D
:100FC00023F0070303F108020B92D3E90034CDE9C3
:100FD000023415F0040F21D0BDF80840002122464C
:100FE0000B46CDE9022315F4807F00F03C8425F404
:100FF000007500F039BC0B9B1A1D0B921C68002178
:1010000022460B46CDE90223E3E700BF4C00002057
:1010100070280008FC2700080C28000815F0080FAD
:10102000E1D09DF80840002122460B46CDE902237D
:10103000D9E72B230593D6E745F4005545F480689E
:101040000B9B073323F0070303F108020B92D3E94C
:101050000045CDE9024518F4807F12D096B908F416
:101060004066B6F5406F14BF002601260AE045F43D
:10107000005545F40068E3E745F4005545F4406841
:10108000DEE706262046294601F0ECF9002840F06C
:10109000C3802046294601F0EDF90A90002840F06F
:1010A000D8802046294601F0DAF948B148F06008B6
:1010B000069405F100430793DDE90634CDE90234D7
:1010C000DDE9024513AA2046294601F0DBF9139B0E
:1010D00003EB4303B64A82FB0312DB17C3EBA20305
:1010E0001393002200232046294601F02BF9002803
:1010F00000F0BB8008F440630593B3F5806F0AD01D
:10110000B3F5406F40F03582139BB34203DA13F11D
:10111000040F80F22E821398B0F59A7F40F0C180C0
:10112000A1A3D3E900232046294601F001F8CDE927
:101130000201DDE90245002200232046294601F094
:1011400001F9002848D12046294601F08BF90028F2
:1011500040F0B3800022974B2046294601F029F940
:10116000C0B1139B03F10109CDF808900022914B07
:101170002046294600F0DCFF04460D4609F101092E
:1011800000228C4B01F015F90028EDD1029B13933E
:10119000CDE90245DDE902450022874B204629467C
:1011A00001F025F9C0B1139B03F1FF39CDF8089088
:1011B0000022804B2046294600F004FF04460D46DD
:1011C00009F1FF3900227C4B01F011F90028EDD123
:1011D000029B1393CDE90245002E00F06784059B26
:1011E000B3F5406F00F086807042FFF7A7FB002246
:1011F000724B00F0E7FEDDE9022300F09EFD04469D
:101200000D46CDE9024500226A4B01F0D2F80028D4
:1012100000F0708400F060BC0022002320462946C4
:1012200001F0E5F868B918F4005F654B654A08BF3E
:10123000134618F0200F08BF0133029328F480737F
:10124000E1E518F4005F604A604B18BF1346029353
:10125000F4E718F4005F5E485E4B08BF184628F4B8
:101260008073D5E5139B0133139313980130FFF777
:1012700065FB02460B462046294601F0D4F80028BB
:10128000F0D102E0139B013B13931398FFF756FB39
:1012900002460B462046294601F0A9F80028F1D164
:1012A00028E74042FFF74AFB02460B462046294604
:1012B00000F088FECDE902013BE700220023204632
:1012C000294601F094F868B918F4005F3C4B3D4A98
:1012D00008BF134618F0200F08BF0133029328F40B
:1012E000807390E518F4005F374A384B18BF1346F7
:1012F0000293F4E706F1FF39C6F10100FFF71EFB88
:1013000000222E4B00F05EFEDDE9022300F015FD09
:1013100004460D46CDE902450022264B01F049F86E
:1013200008B14E46D8E34E46E1E3102EA8BF102682
:10133000DDE902453046FFF701FB02460B46204639
:10134000294600F03FFE00F0CEFC8146059151EAAF
:1013500000030BD128F400630593049BA3F1050956
:1013600018F0800340F0D4830A93D3E30A220023C9
:1013700000F0F8FB134340F0C3830A240025013E2C
:1013800022462B464846059900F0ECFB8146059124
:10139000002EDFD022462B4600F0E4FB1343EED0B4
:1013A000AEE3012425E000BFA0C8EB85F3CCE17FCC
:1013B00067666666000024400000F03F0000E03FE2
:1013C000882800089028000878280008802800084D
:1013D000982800089C2800080022BC4BDDE9020187
:1013E00000F0F0FDCDE90201013C139409F1FF3951
:1013F00002240A9B23EAE3730A9318F0600F18BFD4
:1014000009F1FF391398FFF7F7FA6328C8BF09F10C
:10141000FF39DDE902783846414600F064FC0546B4
:101420000E4600F056FC02460B463846414600F098
:1014300082FCCDE9020129EAE977059B13F4047FD8
:1014400000F05781059B13F0200F00F0608113F02E
:10145000400F14BF2D212B215046FFF797FA059B13
:1014600013F0100F00F05D8104F10053013B984A26
:1014700002EBC3084FF03009013CD8F80030D8F82F
:1014800004C0A8F108089D4276EB0C02C0F056811A
:1014900049460131C9B2E81A66EB0C020546164608
:1014A000984272EB0C02F4D25046FFF76FFA002C10
:1014B000E2D1059B13F4006440F042810A9B002BAB
:1014C00040F04D81059B13F0800F40F0E482059BB6
:1014D00013F4806F2FD013F4005F14BF45216521F2
:1014E0005046FFF753FA139B002BC0F29E812B212D
:1014F0005046FFF74BFA1399632900F39E81139925
:10150000744C84FB0132C917C1EBA2013031C9B25E
:101510005046FFF73BFA139B84FB0324D917C1EB1A
:10152000A40101EB8101A3EB410303F13001C9B236
:101530005046FFF72BFA002F00F088822024013F4D
:1015400021465046FFF722FA002FF8D17EE2002212
:10155000614BDDE9020100F035FDCDE90201023CFD
:101560001394A9F10209032443E73C4641E701240F
:1015700043E718F4806F2BD0139B0E2B29DC01332B
:10158000F21A102AA8BF10220A9218F0800F20D158
:10159000B3421ED016463046FFF7D0F902460B463E
:1015A0002046294600F00EFD00224C4B00F0C5FB02
:1015B00001F010F80022454B01F05AF800220023F8
:1015C00000F0C0FE002868D0013EE4D10A9600E099
:1015D0000A9628F480630593139B0A9A5042A3F15C
:1015E0000F028242C8BFA3F11000FFF7A7F94FF026
:1015F000FF3200F06BFF02460B462046294600F002
:101600009CFBCDE90201DDE90245CDE908451398CF
:101610000130FFF793F902460B462046294600F0B9
:10162000C8FE10B1139B013313931398002859DBA4
:10163000102834DCDDE9080100F055FB05460E46B4
:1016400000F047FB02460B46DDE9080100F073FBA2
:10165000CDE90201002313930A2D76F1000346D34E
:101660001F4B0124013453F8081F5A688D4276EB52
:101670000202F7D20A990B19139A1344049AA2EBA7
:10168000030908F080030B4318BF09F1FF3918F074
:10169000600F18BF09F1FF39CDE60A9699E7A0F16E
:1016A00010031393C0F11000FFF748F902460B46F0
:1016B000DDE9080100F086FC00F015FB05460E464A
:1016C00000230024CDE90234C6E700BF0000244017
:1016D000A028000867666666000059400000E03FE9
:1016E000A82800080026139635460124C2E70124E5
:1016F000C0E7B9F1000F7FF7A5AE4FF02008013F1A
:1017000041465046FFF742F9002FF8D19AE6059B73
:1017100013F0400F3FF4A3AE20215046FFF736F9F7
:101720009DE6002F3FF4A0AE4FF03008013F414648
:101730005046FFF72BF9002FF8D195E64946B3E65E
:10174000139B002B7FF7BAAE3025013B139329463C
:101750005046FFF71BF9139B002BF6DCAEE62E215B
:101760005046FFF713F90A9E102EA8BF102626EA4E
:10177000E6760A9BA3EB0608D4B1DDE9024513988F
:10178000301AFFF7DBF802460B462046294600F0E8
:1017900019FC00F0A8FA04460D46C6B3DFF804931E
:1017A00006F10056013E09EBC606CDF810B01FE069
:1017B000DDE902453046FFF7C1F802460B462046F8
:1017C000294600F0FFFB00F08EFA04460D46E4E7E0
:1017D0000131C9B2E01A65EB0C0204461546984285
:1017E00072EB0C02F4D25046FFF7D0F8CB450CD088
:1017F0003368D6F804C0B346083E9C4275EB0C0231
:1018000001D33021E4E73021EDE7DDF810B0B8F185
:10181000000F3FF45CAE30244546013D2146504662
:10182000FFF7B4F8002DF8D151E62D215046FFF70F
:10183000ADF8139B5B4213935DE69B4C84FB013236
:10184000C917C1EB62113031C9B25046FFF79EF89B
:10185000139B84FB0324DA17C2EB6414642202FB9B
:10186000143313934BE601265838202800F2B28037
:1018700001A353F820F000BF950E0008D519000809
:10188000D5190008D5190008D5190008D519000880
:10189000D5190008D5190008D5190008D519000870
:1018A000D5190008D51900082F190008D519000806
:1018B000D5190008D5190008D51900082F190008F6
:1018C000D5190008D5190008D5190008D519000840
:1018D000D5190008FD180008950E0008D519000854
:1018E000D5190008D5190008D51900082F190008C6
:1018F000D5190008D5190008950E0008DDE9023455
:101900001A462146234308BF002464D00DA80024B2
:1019100002F00703303300F8013B0134D30843EAF7
:101920004173CF081A4639463B43F1D153E0DDE914
:1019300002341F46A046234308BF00244BD0002496
:1019400005F40043CDF828B0AB461D4630E001F069
:101950000F0318F8033007F8013B01340B0943EA81
:101960000273100919460246034306D0002DEED03B
:1019700001F00F031EF80330EDE765462BE014ABD2
:1019800003EB04090A2200233846414600F0EAF836
:10199000303209F81C2C01340A2200233846414613
:1019A00000F0E0F80A2F78F100030FD307468846CD
:1019B000002DE4D004F00303032BE0D114AB234447
:1019C0004FF02C0203F81C2C0134D8E75D46DDF8FB
:1019D00028B000E00024361B26EAE676049BA3EB41
:1019E0000608A8EB0408059BFF2B0ED9A8F10208F6
:1019F000C3F307215046FEF7C9FF9DF81410504667
:101A0000FEF7C4FF05E00024E5E7059B002B40F04E
:101A10009F80524641462846FEF7E1FF5246314636
:101A20003020FEF7CEFF671E0DD40DAF013C3C44C5
:101A3000217826465046FEF7A9FFA74204F1FF345D
:101A4000F6D14FF0FF3715F0100F0BD15C4614F8AC
:101A5000011B69B125293FF443A85046FEF796FFC4
:101A6000A346F3E7524641462020FEF7AAFFEDE7E2
:101A7000DAF808303BB1DAF80020DAF804108A42CC
:101A80003CBF00219954DAF8000015B0BDE8F08F92
:101A90004FF0FF30F9E72E215046FEF777FF0A9E00
:101AA00067E600BFA02800081F85EB510020FEF765
:101AB00045FF0022284B00F085FADDE9022300F003
:101AC0003CF904460D46CDE902450022234B00F0C7
:101AD00070FC00283FF43EAC139B013313930022AB
:101AE0001E4B2046294600F023FBCDE90201002EC3
:101AF0003FF430AC08F40863B3F5006F3FF415AC65
:101B000028F400630593731D049AA2EB03090A9657
:101B100009F1FF3918F4805F3FF429AD139C104B95
:101B200083FB0423A3EBE47303EB4303E31A0233C5
:101B3000042B3FF61AAD01A252F823F0D913000886
:101B40004F150008A3130008D91300084F1500080B
:101B500008F1FF3851E700BF0000E03F00002440DB
:101B60005655555553EA020C61D02DE9F04BB3FAA6
:101B700083F51E0007BFB2FA82F502FA05F403FAF4
:101B800005F41646C5F120051EBF22FA05F73C43B1
:101B9000203556EA044C4FEA144418BF0134A346DA
:101BA0004FF00009C846904271EB030C39D309424B
:101BB00007BFB0FA80F700FA07F6B1FA81F701FA29
:101BC00007F6C7F120071EBF20FA07FC46EA0C06FD
:101BD0002037B6FBFBFC7F1B103F07F01F04C4F14E
:101BE00020060CFA04F42CFA06F644BF344600260C
:101BF000202FA4BF2646002454EA060C08BF012467
:101C000018EB040849EB0609A4FB027CC01B06FB89
:101C100002CC04FB03CC71EB0C01904271EB030C82
:101C2000C5D20B46024649464046BDE8F08BB2FBA2
:101C3000F3F250EA010308BF704711F000424FEA87
:101C4000125242F4806242F03D0240F104800023CF
:101C5000404263EB0101002902BF01460020203A07
:101C6000B1F5803F3FBF103A090441EA104100043A
:101C7000B1F1807F3FBF083A090241EA10610002DA
:101C8000B1F1805F3FBF043A090141EA10710001E0
:101C900011F0404F01BF023A890041EA9071800083
:101CA00009425FBF490041EAD0714000013A830513
:101CB0004FEAD02040EA41504FEAD12108BF10F04E
:101CC000010F01EB025198BF7047013041F1000153
:101CD000704750EA010308BF70475FF4806242F02A
:101CE0003D02FFF7B8BF4B001AD25A0DA2F5407261
:101CF000FF3A15D4D2F13F0215DBC90241EA505137
:101D0000C00241F00041202A22BF08460021B2F162
:101D10002002D141D04048409140D14048407047D6
:101D20000020002170476FF000010846704781F0E5
:101D3000004183F0004383F00043F0B491EA030FC5
:101D400000F18E80841A71EB030603D212197341DD
:101D5000001BB1414FF07F4646F4600616EA410F82
:101D600008BF62E0B6EB410F98BF69E04FEA11543B
:101D7000A4EB1357B14341F4801116EA430F07BF98
:101D800000230022B34343F48013D7F1200634D359
:101D900003FA06F5401941F1000122FA07F540194E
:101DA00023FA07F541EB050102FA06F211F4001FD0
:101DB00019D121F4801101EB0451F0BCB2F1004FB4
:101DC00008BF10EA500F50F1000041F100014FF040
:101DD0007F4343F46003B3EB410F88BF7047090DA5
:101DE00009050020704749085FEA30005FEA3202C7
:101DF00028BF42F001020134DBE7203F402F19D217
:101E000023FA07F5401941F10001C7F120061242FB
:101E100018BF012203FA06F52A43C7E711EA560F55
:101E200004BF00200021F0BC704701F000410020F9
:101E3000F0BC704721F4801101EB0451F0BC7047F5
:101E4000004218BF41F00101B6EB410F04BFF0BCE6
:101E500070474FF0FE4141F478010020F0BC70471C
:101E600083F00043841A71EB030705D287F0004723
:101E7000001BB94112197B415FF07F4656F46006A2
:101E800016EA430FCAD0B6EB410F40F28C800C0D1E
:101E9000A4EB1357C90241EA5051C00241F000417E
:101EA000DB0243EA5253D20243F00043D7F120064B
:101EB0005AD302FA06FCFA4003FA06F52A43FB401D
:101EC0001CEA0C0F18BF42F00102801A9941E30A84
:101ED0006405640D11F0404F2ED427D1002902BFB4
:101EE00001460020203C00295BD0B1F5803F3FBF78
:101EF000103C090441EA10410004B1F1807F3FBF6A
:101F0000083C090241EA10610002B1F1805F3FBF65
:101F1000043C090141EA1071000111F0404F01BF7A
:101F2000023C890041EA9071800009425FBF013C98
:101F3000490041EAD0714000002C11DD420521F03A
:101F40000041C00A40EA4150C90A41EAC37146084B
:101F500072F1004250F1000051EB0451F0BC7047A7
:101F60000020D907F0BC7047A7F12007202F0CD222
:101F7000C7F1200603FA06F5FB402A4318BF43F0D9
:101F80000103C01A61F10001A1E721F00041C00A7C
:101F900040EA4150C90A01EB0451F0BC70470020EF
:101FA0000021F0BC7047004218BF41F00101B6EBC0
:101FB000410F7FF44EAFB6EB430F3FF44AAFF0BC96
:101FC00070470000F0B5574F81EA030517EA010E8C
:101FD0001EBF9EEA070F17EA030494EA070F64D0B6
:101FE0004EEAD57EA64421EA470141F4801123EA56
:101FF000470343F48013A1FB0247A0FB0365361996
:102000007D41A1FB034747F10003A0FB0217F6192E
:10201000654153F10003094218BF46F00106142739
:10202000B3F5007F47F1000734BF3F4A3F4ABEEB9C
:10203000020E31D4C7F1200403FA04F105FA04F0CA
:1020400025FA07F2114326FA07F2104316FA04F4B0
:1020500021F480114FEA5E0741EA47010AD0B4F14A
:10206000004F50F1000041F10001B4F1004F08BFF2
:1020700020F001002B4F1EEA070F10D041EACE716D
:10208000BE453CBFBDE8F04070472649002041EA0C
:10209000CE71BDE8F04070471EEB020EF5D44FEA5A
:1020A000CE710020BDE8F0407047394204BF01F016
:1020B00000410020004218BF41F001013B4204BF33
:1020C00003F000430022124218BF43F0010307EA65
:1020D0000304BC4218BF9EEA070F05D005F000417B
:1020E0000020BDE8F040704721F0004123F000439C
:1020F000B9420FD8BB420DD8002918BF002B09D018
:1021000005F0004141F0FE4141F470010020BDE8BE
:10211000F04070474FF0FE4141F478010020BDE8E7
:10212000F04070470000F07F0000F03F0000E03F0B
:10213000F0B581EA030E0EF0004E814F17EA41051B
:102140001EBF95EA070F17EA430494EA070F00F051
:10215000C5806D0DA5EB545707F580674FF000461D
:1021600046EAC12444EA5054C00246EAC32343EA83
:102170005253D202801A9C4104D200186441801844
:102180005C41013F5B084FEA32020025002140F02C
:1021900001004FF0070604E0801A9C4136D340410D
:1021A0006441801A9C4136D340416441801A9C416D
:1021B00036D340416441801A9C4136D3404164414A
:1021C000801A9C4136D340416441013E17D0801AA9
:1021D0009C4136D340416441801A9C4136D34041F2
:1021E0006441801A9C4136D340416441090201EBAD
:1021F00015612D02454020F0FF004540CCE7801AD4
:102200009C4156D335E080185C41C8D20018644127
:1022100080185C41C8D20018644180185C41C8D263
:102220000018644180185C41C8D2001864418018CD
:102230005C41C8D200186441013E17D080185C414F
:10224000C8D20018644180185C41C8D200186441AB
:1022500080185C41C8D200186441090201EB156185
:102260002D02454020F0FF004540CCE780185C413E
:102270001FD3420918BF44F00104490101EBD561A5
:1022800000F01F0000EB451021F4801141EA0E011F
:10229000013041F10001244208BF20F00100B7F5F0
:1022A000006F3EDA013F49DD01EB0751BDE8F04028
:1022B0007047490101EBD56100F01F0000EB4510AC
:1022C00021F4801141EA0E01B7F5006F29DA013FD0
:1022D00034DD01EB0751BDE8F0407047004218BF04
:1022E00041F00101124218BF43F00103B7EB410F67
:1022F0002CBFB7EB430F1CE0B7EB410F04BFB7EBAC
:10230000430F16E017EA410F04BF17EA430F10E02E
:1023100017EA410F12D017EA430F02D0B7EB430F71
:102320000CD04EF0FE4141F470010020BDE8F040B9
:1023300070474FF0FE4141F47801F6E77146F4E74B
:102340000000E0FF4FF4001C1CEB410F98BF1CEB9A
:10235000430F0CD850EA410C08BF52EA430C08D096
:10236000904208BF99420CBF012000207047002016
:102370007047012070474FF4001C1CEB410F98BFC1
:102380001CEB430F11D851EA030C50EA4C0C5CEAE9
:10239000020C0CD004D282428B4180410130704744
:1023A00090429941804101307047002070470120E0
:1023B00070474FF4001C1CEB410F98BF1CEB430F00
:1023C00011D851EA030C50EA4C0C5CEA020C0CD018
:1023D00004D29042994180410130704782428B4142
:1023E00080410130704700207047012070474FF452
:1023F000001C1CEB410F98BF1CEB430F11D851EA96
:10240000030C50EA4C0C5CEA020C0AD004D2904255
:10241000994180414042704782428B418041404215
:102420007047002070474FF4001C1CEB410F98BF11
:102430001CEB430F11D851EA030C50EA4C0C5CEA38
:10244000020C0AD004D282428B4180414042704744
:10245000904299418041404270470020704701F00E
:10246000004070470128494111F5001F0CBF0120B1
:10247000002070470128494111F5001F8CBF012041
:10248000002070472DE9F0410023904600220446C9
:102490000D46FFF757FF30B1002320462946C8F804
:1024A0000030BDE8F08125F0FF4323F4E003C5F3DD
:1024B0000A5243F07F57A2F2FE3247F4001720463B
:1024C0003946C8F80020BDE8F08100BF2DE970430F
:1024D00000231646002204460D46FFF733FFB8B925
:1024E00040F2FE72C5F30A533344934214DC002ECB
:1024F000A04601DB002B0FDB002B09DD25F0FF429E
:1025000022F4E00242EA035940464946BDE870839E
:1025100000200021BDE87083FEF772FA0346034AEB
:102520000020126802491A60BDE870832028000864
:102530000000F07F2DE9F0410026002790463B4641
:10254000324605460C46FFF7FDFE40BBC4F30A5376
:10255000A3F2FF32002AA446AE4628DB332A2CDC45
:1025600021464FF0FF342846194DC2F1200605FAE6
:1025700006F6D440A3F21F4325FA03F33443D540B3
:102580001C432EEA04022CEA0503C8E90023FFF7E6
:10259000D2FB05460C4628462146BDE8F08135466B
:1025A0003C4628462146C8E90067BDE8F081284638
:1025B0002146C8E90067BDE8F0812A462346354632
:1025C0003C4628462146C8E90023BDE8F08100BF0B
:1025D000FFFF0F00F8B50022002305460C46FFF769
:1025E000B1FE30BBC4F30A52A2F2FF3100292346E8
:1025F000AC4621DB33291CDC4FF0FF30194CC1F114
:102600002005A2F21F4224FA02F204FA05F5CC409A
:1026100020FA01F1294311430CEA010223EA0407DD
:10262000234013432CEA010601D0002F10DB35466E
:102630003C4628462146F8BD002C4FF0000503DB40
:102640002C4628462146F8BD074C28462146F8BDB1
:10265000002230463946054BFFF76DFB05460C4618
:10266000E7E700BFFFFF0F000000F0BF0000F03FF2
:102670002DE9F04114461D4606460F4682B0002261
:10268000002320462946FFF75DFE002869D1304629
:102690003946FFF7EFFE20B13046394602B0BDE8BB
:1026A000F08120462946FFF7E5FE002865D100228B
:1026B000002330463946FFF745FE0028ECD130466E
:1026C0003946FFF7CFFE00285ED120462946FFF7A6
:1026D000C9FE0028E0D12946204600F07FF8804658
:1026E0000D460B46024639463046FFF721FD6A4645
:1026F000FFF720FFDDE9002340462946FFF762FC93
:1027000002460B4630463946FFF715FB02460B469C
:102710003046394616461F4600220023FFF783FE47
:10272000A8B3404632463B462946FFF724FE38B15F
:102730003046394642462B46FFF7FDFA06460F461D
:102740000022002330463946FFF751FE0028A3D06F
:102750003046394642462B46FFF7EFFA06460F460B
:102760009AE7FEF74DF900261A4B1B4F1B683946B6
:102770000360304602B0BDE8F08126462F46304661
:10278000394602B0BDE8F0810026134F84E7424687
:102790003046394605F10043FFF7EDFD38B13046CC
:1027A000394642462B46FFF7C8FA06460F46002236
:1027B000002330463946FFF736FE00283FF46CAF61
:1027C0003046394642462B46FFF7B5FA06460F46D5
:1027D00062E700BF1C2800080000F87F21F00041DC
:0227E000704740
:1027E400253032643A253032643A253032640A00A6
:1027F400436C6F636B00000030313233343536374D
:102804003839616263646566303132333435363762
:10281400383941424344454621000000220000006B
:102824000000000000000000000024400000000040
:1028340000005940000000000088C3400000000070
:1028440084D797410080E03779C34143176E05B5BB
:10285400B5B89346F5F93FE9034F384D321D30F9C9
:102864004877825A3CBF737FDD4F1575286E756CAF
:102874006C2900002D494E46000000002D696E664B
:10288400000000002B494E46000000002B696E66D4
:10289400000000004E414E006E616E000100000019
:1028A400000000000A0000000000000064000000B6
:1028B40000000000E80300000000000010270000F2
:1028C40000000000A08601000000000040420F004C
:1028D40000000000809698000000000000E1F5056B
:1028E4000000000000CA9A3B0000000000E40B5402
:1028F4000200000000E87648170000000010A5D48C
:10290400E800000000A0724E1809000000407A1090
:10291400F35A00000080C6A47E8D03000000C16F3E
:10292400F286230000008A5D78456301000064A7F5
:0C293400B3B6E00D0000E8890423C78A58
:1029400004000000000E0E1515110E00000E0E11F1
:1029500017110E00000E0E1115150E00000E0E11AF
:062960001D110E00010034
:040000050800029F4E
:00000001FF
